S01700004763634170706C69636174696F6E312E737265635B
S11300000C943A000C947B000C944C000C944C001F
S11300100C944C000C944C000C944C000C944C002C
S11300200C944C000C944C000C944C000C946C00FC
S11300300C944C000C944C000C944C000C944C000C
S11300400C944C000C944C000C944C000C944C00FC
S11300500C944C000B0410041804200428043004ED
S113006038044004500455045D0465046D047504AB
S11300707D04850411241FBECFE5D8E0DEBFCDBFCB
S113008020E0A0E6B0E001C01D92AC36B207E1F773
S11300900E944A010C94D5060C94000062E084E4AA
S11300A00E941201109265000E94A10263E080E0A8
S11300B00E94A40280E00E94060364E084E40E949B
S11300C0160120E630E043E650E061E670E082E6A7
S11300D090E00E94420608951F920F920FB60F926D
S11300E011248F9381E0809363008F910F900FBE52
S11300F00F901F9018951F920F920FB60F92112414
S11301002F933F934F935F936F937F938F939F931B
S1130110AF93BF93EF93FF9380916500811115C056
S11301200E941D0381E08093650080916200E6E6F1
S1130130F0E0808380916100818362E080E00E942E
S1130140A40280E00E9406035CC0809165008130B7
S113015009F057C080E00E941D0310926500809151
S11301606200E8E6F0E080838091610081839091F1
S113017066008081891718F480818C5F8083909158
S1130180660080916800981308C08091690090917E
S11301906700891B8093640017C09091660080916A
S11301A06800981788F4A8E6B0E09C91E6E6F0E0D1
S11301B0308111968C912181931B33E1939F800DA3
S11301C01124821B8093640080916400833090F436
S11301D064E084E40E94220120E630E043E650E03B
S11301E061E670E082E690E00E947D0664E084E4CB
S11301F00E94220163E080E00E94A40280E00E9449
S11302000603FF91EF91BF91AF919F918F917F91E1
S11302106F915F914F913F912F910F900FBE0F906F
S11302201F90189540E00E944F01089541E00E94FC
S11302304F01089541E00E94DB01089540E00E94CF
S1130240DB0108950E946702089540E060E080E0C9
S11302500E94340381110CC06CE00E94C60381111A
S113026009C060E00E94D303882329F081E0089547
S113027081E0089581E0089565E080E00E94FA033A
S1130280811181E0089560E080E00E94FA03811109
S113029081E008950E944E0080E090E00895823449
S11302A049F118F4813441F07DC0833409F440C02D
S11302B0843409F45AC076C041110DC02AB381E0D8
S11302C090E002C0880F991F6A95E2F78095822317
S11302D08ABB80E00895413009F065C02AB381E00B
S11302E090E002C0880F991F6A95E2F7822B8ABBBF
S11302F080E0089541110DC027B381E090E002C071
S1130300880F991F6A95E2F78095822387BB80E066
S11303100895413009F049C027B381E090E002C05C
S1130320880F991F6A95E2F7822B87BB80E00895B6
S113033041110DC024B381E090E002C0880F991FE1
S11303406A95E2F78095822384BB80E0089541306A
S113035071F524B381E090E002C0880F991F6A957B
S1130360E2F7822B84BB80E0089541110DC021B3D4
S113037081E090E002C0880F991F6A95E2F78095AA
S1130380822381BB80E00895413099F421B381E058
S113039090E002C0880F991F6A95E2F7822B81BB17
S11303A080E00895089581E0089581E0089581E052
S11303B0089581E00895823449F118F4813441F0BC
S11303C07DC0833409F440C0843409F45AC076C033
S11303D041110DC02BB381E090E002C0880F991F3A
S11303E06A95E2F7809582238BBB80E008954130C3
S11303F009F065C02BB381E090E002C0880F991F1B
S11304006A95E2F7822B8BBB80E0089541110DC001
S113041028B381E090E002C0880F991F6A95E2F743
S11304208095822388BB80E00895413009F049C05B
S113043028B381E090E002C0880F991F6A95E2F723
S1130440822B88BB80E0089541110DC025B381E063
S113045090E002C0880F991F6A95E2F78095822385
S113046085BB80E00895413071F525B381E090E0CB
S113047002C0880F991F6A95E2F7822B85BB80E042
S1130480089541110DC022B381E090E002C0880FAD
S1130490991F6A95E2F78095822382BB80E00895D4
S11304A0413099F422B381E090E002C0880F991F93
S11304B06A95E2F7822B82BB80E00895089581E07B
S11304C0089581E0089581E0089581E008958234DB
S11304D0A1F018F4813431F031C08334C9F084348C
S11304E011F12CC02BB381E090E002C0880F991F5A
S11304F06A95E2F782278BBB22C028B381E090E0A3
S113050002C0880F991F6A95E2F7822788BB17C03B
S113051025B381E090E002C0880F991F6A95E2F745
S1130520822785BB0CC022B381E090E002C0880F13
S1130530991F6A95E2F7822782BB01C0089580E083
S11305400895789480E00895813039F120F0823064
S113055009F445C053C0613059F028F0623081F08D
S11305606330B1F04DC085B78C7F85BF80E00895BE
S113057085B78D7F85BF85B7816085BF80E008958D
S113058085B78E7F85BF85B7826085BF80E008957B
S113059085B7836085BF80E00895613059F028F005
S11305A0623081F06330B1F02DC085B7837F85BFA1
S11305B080E0089585B7877F85BF85B7846085BF50
S11305C080E0089585B78B7F85BF85B7886085BF38
S11305D080E0089585B78C6085BF80E0089562301F
S11305E019F0633031F010C084B78F7B84BF80E092
S11305F0089584B7806484BF80E0089581E00895FD
S113060081E0089581E0089581E00895813049F002
S113061018F0823059F00FC08BB780648BBF80E034
S113062008958BB780688BBF80E008958BB7806294
S11306308BBF80E0089581E00895813049F018F07F
S1130640823059F00FC08BB78F7B8BBF80E0089549
S11306508BB78F778BBF80E008958BB78F7D8BBF6F
S113066080E0089581E00895882321F0813009F421
S113067042C082C0611104C083B7877B83BF18C0A6
S1130680613039F483B7877F83BF83B7806483BFC6
S11306900FC0623039F483B78F7B83BF83B7886020
S11306A083BF06C0633009F069C083B7886483BF21
S11306B0411105C083B78F7C83BF80E0089541302A
S11306C041F483B7806183BF83B78F7D83BF80E0AC
S11306D00895423041F483B7806283BF83B78F7E2D
S11306E083BF80E00895433009F04AC083B7806334
S11306F083BF80E00895611104C085B5877B85BD03
S113070017C0613039F485B5877F85BD85B58064B0
S113071085BD0EC0623039F485B58F7B85BD85B546
S1130720886085BD05C0633069F585B5886485BD7D
S113073088E082BD411105C085B58F7C85BD80E010
S11307400895413041F485B5806185BD85B58F7DBF
S113075085BD80E00895423041F485B5806285BD51
S113076085B58F7E85BD80E00895433069F485B5F5
S1130770806385BD80E0089581E0089581E0089557
S113078081E0089581E0089581E00895882319F0B7
S1130790813021F006C062BF80E0089564BD80E02E
S11307A0089581E00895882319F0813079F01CC000
S11307B0611105C089B7816089BF80E00895613007
S11307C0A9F489B7826089BF80E00895611105C0EA
S11307D089B7806489BF80E00895613049F489B79E
S11307E0806889BF80E0089581E0089581E00895DC
S11307F081E00895882321F0813009F446C08AC03D
S1130800862F90E08830910508F086C0FC01E65DF3
S1130810FF4F0C94CF0683B7887F83BF80E0089591
S113082083B7897F83BF83B7816083BF80E00895E6
S113083083B78A7F83BF83B7826083BF80E00895D4
S113084083B78B7F83BF83B7836083BF80E00895C2
S113085083B78C7F83BF83B7846083BF80E00895B0
S113086083B78D7F83BF83B7856083BF80E008959E
S113087083B78E7F83BF83B7866083BF80E008958C
S113088083B7876083BF80E00895862F90E0883027
S1130890910508F043C0FC01EE5CFF4F0C94CF06B9
S11308A085B5887F85BD80E0089585B5897F85BD40
S11308B085B5816085BD80E0089585B58A7F85BD55
S11308C085B5826085BD80E0089585B58B7F85BD43
S11308D085B5836085BD80E0089585B58C7F85BD31
S11308E085B5846085BD80E0089585B58D7F85BD1F
S11308F085B5856085BD80E0089585B58E7F85BD0D
S113090085B5866085BD80E0089585B5876085BD21
S113091080E0089581E0089581E0089581E00895DC
S1130920882319F08130D1F03AC0611109C088B729
S11309308170FA01808388B7816088BF80E0089560
S1130940613079F588B7827090E095958795FA01C2
S1130950808388B7826088BF80E00895611112C0E7
S113096088B7807490E0082E892F000C881F990B9B
S1130970000C881F991FFA01808388B7806488BFA0
S113098080E00895613079F488B7881F8827881F2C
S1130990FA01808388B7806888BF80E0089581E089
S11309A0089581E0089581E00895CF92DF92EF9257
S11309B0FF920F931F93CF93DF937C01EB018A0186
S11309C069011882FA01108261E081E40E941E012B
S11309D062E081E40E941E0160E082E40E941E0144
S11309E061E082E40E941E0160E081E40E9416013D
S11309F062E082E40E941601F7018081811128C01F
S1130A000E94A1020E9425010E943C0116C060E0E0
S1130A1081E40E941A0162E082E40E941A01F80152
S1130A208081813051F4108288818F5F88830E9495
S1130A3043010E9425010E943C018881833138F3DF
S1130A4060E081E40E941E0162E082E40E941E01D3
S1130A50F6018081813011F4108203C081E0F70136
S1130A60808380E0DF91CF911F910F91FF90EF90F1
S1130A70DF90CF900895CF92DF92EF92FF920F9381
S1130A801F93CF93DF937C01EB018A0169011882E4
S1130A90FA01108261E081E40E941E0161E082E4B7
S1130AA00E941E0160E081E40E941E0162E082E473
S1130AB00E941E0162E081E40E94160160E082E46B
S1130AC00E941601F7018081823041F50E94A10243
S1130AD00E9425010E943C0116C062E081E40E944C
S1130AE01A0160E082E40E941A01F80180818130D9
S1130AF051F4108288818F5F88830E9443010E9491
S1130B0025010E943C018881833138F362E081E44D
S1130B100E941E0160E082E40E941E01F6018081B1
S1130B20813011F4108203C083E0F701808380E0F8
S1130B30DF91CF911F910F91FF90EF90DF90CF90B5
S1130B400895CF92DF92EF92FF920F931F93CF936A
S1130B50DF936C018B017A01E901FB011082FA0138
S1130B60108210926B0060E081E40E941E0162E03A
S1130B7081E40E941E0160E082E40E941E0162E0A2
S1130B8082E40E941E0161E081E40E94160161E09A
S1130B9082E40E94160161E081E40E941A0161E08E
S1130BA082E40E941A01F601908121E0913009F05B
S1130BB020E081E0933009F080E0822B09F44AC000
S1130BC00E94A1020E9425010E943C0137C0F70146
S1130BD08081813059F41082F80180818F5F808395
S1130BE00E9443010E9425010E943C0140E060E014
S1130BF081E00E94340360E081E00E94C60362E069
S1130C0081E00E94FA0310926B004AE650E061E032
S1130C1081E00E9490048881813021F080916A00F3
S1130C20813089F761E081E40E94220161E082E47D
S1130C300E94220160E081E00E94FA03F8018081B1
S1130C40833128F261E081E40E941E0161E082E4C4
S1130C500E941E018881813011F4188209C0F601B6
S1130C608081813019F482E0808302C0F601108211
S1130C7080E0DF91CF911F910F91FF90EF90DF9073
S1130C80CF900895CF92DF92EF92FF920F931F932C
S1130C90CF93DF93EC016B017A0189018881813064
S1130CA069F028F0823089F08330B1F01CC09801DB
S1130CB0A701B601CE010E94D504F0CF9801A70187
S1130CC0B601CE010E94A105E9CF9801A701B601A2
S1130CD0CE010E943B05E2CF9801A701B601CE01E7
S1130CE00E94A105DBCF81E0DF91CF911F910F918D
S1130CF0FF90EF90DF90CF900895BF92CF92DF9254
S1130D00EF92FF920F931F93CF93DF93EC017B013C
S1130D106A018901888121E0823008F020E091E0B5
S1130D20833009F090E0211102C0992399F0BB248B
S1130D30B394B8829801A601B701CE010E94A1051F
S1130D409801A601B701CE010E943B05F801B082CB
S1130D5080E01BC08230C1F488839801A601B701EA
S1130D60CE010E943B059801A601B701CE010E9465
S1130D703B059801A601B701CE010E94A10581E0BF
S1130D80F801808380E001C081E0DF91CF911F9161
S1130D900F91FF90EF90DF90CF90BF900895EE0FEA
S1110DA0FF1F0590F491E02D0994F894FFCF05
S9030000FC
